:020000040800F2
:10000000D0060020CD010008AF030008A7030008B8
:10001000AB03000887020008E30D000800000000A1
:10002000000000000000000000000000250600089D
:100030008B020008000000003504000811070008CA
:10004000E7010008E7010008E7010008E7010008F0
:10005000E7010008E7010008E7010008E7010008E0
:10006000E7010008E7010008E7010008E7010008D0
:10007000E7010008E7010008E7010008E7010008C0
:10008000E7010008E7010008E7010008E7010008B0
:10009000E7010008E7010008E7010008E7010008A0
:1000A000E7010008E7010008E7010008E701000890
:1000B000E7010008E7010008E7010008E701000880
:1000C000E7010008E7010008E7010008E701000870
:1000D000E7010008710A0008E7010008E7010008CD
:1000E000E7010008E7010008E7010008E701000850
:1000F000E7010008E7010008E7010008E701000840
:10010000E7010008E7010008E7010008E70100082F
:10011000E7010008E7010008E7010008E70100081F
:10012000E7010008E7010008E7010008E70100080F
:1001300000F002F800F03AF80AA090E8000C8244BF
:100140008344AAF10107DA4501D100F02FF8AFF29C
:10015000090EBAE80F0013F0010F18BFFB1A43F0A5
:10016000010318476C0E00008C0E0000103A24BFEB
:1001700078C878C1FAD8520724BF30C830C144BF0C
:1001800004680C607047000000230024002500264E
:10019000103A28BF78C1FBD8520728BF30C148BFEA
:1001A0000B6070471FB51FBD10B510BD00F031F8D2
:1001B0001146FFF7F7FF00F017FE00F04FF803B409
:1001C000FFF7F2FF03BC00F057F800000948804732
:1001D00009480047FEE7FEE7FEE7FEE7FEE7FEE729
:1001E000FEE7FEE7FEE7FEE704480549054A064B41
:1001F000704700001507000831010008D0000020FA
:10020000D0060020D0020020D002002070477047A6
:100210007047754600F02CF8AE4605006946534617
:1002200020F00700854618B020B5FFF7DDFFBDE8D8
:1002300020404FF000064FF000074FF000084FF04D
:10024000000B21F00701AC46ACE8C009ACE8C009DE
:10025000ACE8C009ACE8C0098D46704710B504464B
:10026000AFF300802046BDE81040FFF7A8BF0000B4
:10027000004870476C00002001491820ABBEFEE723
:1002800026000200704700BFFEE770472DE9F041ED
:10029000024600250026002000230024002791F8B4
:1002A00003C00CF00F0591F803C00CF0100CBCF16A
:1002B000000F03D091F802C04CEA050591F800C088
:1002C000BCF1000F31D0146800202BE04FF0010C7E
:1002D0000CFA00F3B1F800C00CEA03069E4220D1EC
:1002E00083004FF00F0C0CFA03F7BC4305FA03FC34
:1002F0004CEA040491F803C0BCF1280F06D14FF07A
:10030000010C0CFA00FCC2F814C00AE091F803C01A
:10031000BCF1480F05D14FF0010C0CFA00FCC2F8FB
:1003200010C0401C0828D1D31460B1F800C0BCF143
:10033000FF0F34DD546800202EE000F1080C4FF070
:10034000010808FA0CF3B1F800C00CEA03069E425B
:1003500021D183004FF00F0C0CFA03F7BC4305FAD0
:1003600003FC4CEA040491F803C0BCF1280F05D14A
:1003700000F1080C08FA0CF8C2F8148091F803C0D8
:10038000BCF1480F07D100F1080C4FF0010808FA42
:100390000CF8C2F81080401C0828CED35460BDE889
:1003A000F0810161704700BFFEE700BFFEE77047C4
:1003B00070B5002100230F22C47804B3154C2468C3
:1003C00004F4E064C4F5E064210AC1F10403CA4006
:1003D000447804FA03F184781440214309010E4C57
:1003E0000678A155047804F01F050124AC40057877
:1003F0006D11AD0005F1E025C5F8004109E0047874
:1004000004F01F050124AC40044D0678761145F830
:10041000264070BD0CED00E000E400E080E100E06B
:1004200002490143024A1160704700000000FA05CA
:100430000CED00E07047000029B1064AD269024382
:10044000044BDA6104E0034AD2698243014BDA616A
:10045000704700000010024029B1064A9269024329
:10046000044B9A6104E0034A92698243014B9A610A
:10047000704700000010024030B500210022002427
:1004800000232D4D6D6805F00C0121B1042905D024
:10049000082923D105E0294D056022E0274D05609C
:1004A0001FE0254D6D6805F47012234D6D6805F44D
:1004B0008034022505EB92421CB9214D554305605D
:1004C0000BE01D4D6D6805F400351DB11C4D554305
:1004D000056002E0194D5543056002E0174D0560C7
:1004E00000BF00BF144D6D6805F0F0010909154DFE
:1004F0006B5C0568DD4045600F4D6D6805F4E0619B
:10050000090A104D6B5C4568DD4085600A4D6D68D9
:1005100005F46051C90A0B4D6B5C4568DD40C56050
:10052000054D6D6805F44041890B074D6B5CC5684E
:10053000B5FBF3F5056130BD0010024000127A00F2
:1005400000093D000C0000201C0000202DE9F041B6
:1005500088B005460E4617461C46DDF83880B5F1D2
:10056000804F04D101210846FFF766FF06E02A48C4
:10057000854203D101210220FFF75EFF2748844214
:1005800004D101210520FFF767FF06E024488442DB
:1005900003D101210920FFF75FFFADF81C8018206F
:1005A0008DF81F0003208DF81E0007A92046FFF7D5
:1005B0006DFEADF81460ADF810700020ADF81600B7
:1005C000ADF8120004A9284600F0D8F96020ADF873
:1005D00000000120ADF802000020ADF80600ADF8E3
:1005E00008006946284600F01FF90821284600F057
:1005F0006BF96946284600F071F90821284600F099
:10060000ABF90121284600F0F7F80121284600F057
:10061000FFF808B0BDE8F081000400400008014088
:10062000000C0140704710B500F002F810BD00004A
:100630000CB50020019000903348006840F48030F1
:100640003149086000BF3048006800F40030009075
:100650000198401C0190009818B90198B0F5A06F5E
:10066000F1D12948006800F4003010B10120009059
:1006700001E0002000900098012843D12348006841
:1006800040F01000214908600846006820F003008F
:1006900008600846006840F0020008601A48406898
:1006A000194948600846406848600846406840F478
:1006B000806048600846406820F47C104860084626
:1006C000406840F4E81048600846006840F08070D8
:1006D000086000BF0C48006800F000700028F9D0E6
:1006E0000948406820F00300074948600846406810
:1006F00040F00200486000BF0348406800F00C0072
:100700000828F9D10CBD0000001002400020024072
:100710007047000010B51348006840F0010011490F
:10072000086008464068104908400E49486008467D
:1007300000680E4908400B4908600846006820F42C
:10074000802008600846406820F4FE0048604FF4AE
:100750001F008860FFF767FF4FF0006004490860E2
:1007600010BD0000001002400000FFF8FFFFF6FE81
:1007700008ED00E008B501219420FFF76DFE302060
:10078000ADF8000010208DF8030003208DF8020062
:1007900069461648FFF77AFD30211448FFF701FE3D
:1007A0001420ADF8000010208DF8030003208DF810
:1007B000020069460E48FFF769FD14210C48FFF757
:1007C000F0FD4FF42A40ADF8000010208DF8030032
:1007D00003208DF8020069460648FFF757FD4FF4E5
:1007E0002A410448FFF7DDFD08BD00000008014074
:1007F00000100140001C014021B1028842F080023B
:10080000028004E002884FF67F731A40028070472E
:1008100021B1028842F00102028004E002884FF612
:10082000FE731A400280704770B500240022002336
:10083000058C4FF6FF6635400584028C8388848BD7
:100840004FF68F752C404FF6FC752C400D882C43CD
:100850004FF6FF552A400D894FF6FF7606EA05252B
:100860002A434D8806EA05252A43154DA84202D0A1
:10087000144DA8421DD14FF2FF752A404D894FF605
:10088000FF7606EA05252A434FF6FF352A408D8874
:1008900006EA05252A434EF6FF752B404DF6FF75F7
:1008A0002B408D8906EA05152B43CD8906EA0515EF
:1008B0002B4383808483CD888587028470BD0000AC
:1008C000002C0140003401400A460021818B4FF684
:1008D000F7731940114381837047000070B50022FF
:1008E00000230024058C4EF6FF7635400584038CEA
:1008F0008488828B48F6FF752A404FF6FF452A40D0
:100900000D884FF6FF7606EA05252A434DF6FF755A
:100910002B400D8906EA05352B434D8806EA05353F
:100920002B430B4DA84202D00A4DA84208D14BF6EA
:10093000FF752C408D894FF6FF7606EA85152C430E
:1009400084808283CD88A0F84050038470BD00006D
:10095000002C0140003401400A460021818B4FF2F7
:10096000FF7319404FF6FF7303EA02231943818393
:10097000704781877047A0F84010704700220288B6
:100980001D4B98420ED01D4B98420BD0B0F1804FBA
:1009900008D01B4B984205D01A4B984202D01A4BF4
:1009A000984204D14FF68F731A404B881A43174B65
:1009B000984207D0164B984204D04FF6FF431A4096
:1009C000CB881A4302808B8883850B8803850A4B6A
:1009D00098420BD0094B984208D00E4B984205D054
:1009E0000D4B984202D00D4B984201D10B7A0386F1
:1009F0000123838270470000002C01400034014035
:100A00000004004000080040000C004000100040BE
:100A100000140040004001400044014000480140F3
:100A200001200E49086000200D49C1F89001012005
:100A30000C49086000200949091D086001200A4985
:100A40000860002008490839086001200649183963
:100A5000086000200549C1F8AC01704790012142AF
:100A60000000224288012242BC81234200802342AE
:100A700010B500202749087540F22551264800F09E
:100A8000EFF8012844D1244800F0A6F9C4B2234865
:100A9000007828B9FF2C35D101202049087031E0B9
:100AA0001E48007801280CD1012C06D102201B49D8
:100AB000087000201A49087024E0002017490870C7
:100AC00020E016480078022810D11248144909780D
:100AD000445413480078401C1149087008460078B7
:100AE00008280FDB03200D4908700BE00B48007845
:100AF000032807D1FE2C05D10020084908700120E9
:100B00000449087540F22551034800F081F800BF00
:100B100010BD00002C000020003801400A00002019
:100B20000B00002010B586B0044601210420FFF719
:100B300093FC01218803FFF78FFC18208DF8170024
:100B40004FF40070ADF8140003208DF8160005A9CD
:100B50001E48FFF79BFB04208DF817000002ADF83C
:100B6000140003208DF8160005A91848FFF78EFB26
:100B700001940020ADF810000C20ADF80E0000200C
:100B8000ADF80C00ADF80A00ADF8080001A9104856
:100B900000F0B6F801210E4800F049F8012240F2B9
:100BA00025510B4800F086F825208DF80000012023
:100BB0008DF8030000208DF8010001208DF802005F
:100BC0006846FFF7F5FB06B010BD000000080140C5
:100BD0000038014070B505460E46002404E0285D4B
:100BE00000F006F8601CC4B2B442F8DB70BD00002F
:100BF00010B504460548048000BF80210348001F4B
:100C000000F021F80028F8D010BD000004380140A1
:100C100010B50022002340F66A14A14200D100BFA3
:100C20000A1201249440A3B2DC43048010BD21B118
:100C3000828942F40052828104E082894DF6FF737A
:100C40001A408281704702460020B1F5007F00D132
:100C500000BF13880B400BB1012000E0002070475B
:100C600070B50246002400230025002040F66A16D5
:100C7000B14200D100BFC1F3421501F01F030126AC
:100C800006FA03F3012D02D19689334006E0022DC6
:100C900002D1168A334001E0968A33400C120126B5
:100CA00006FA04F41688344013B10CB1012000E0B8
:100CB000002070BDF0B5034600240026002500206A
:100CC00040F66A17B94200D100BF1846C1F342147A
:100CD00001F01F06012707FA06F5012C01D10C309F
:100CE00004E0022C01D1103000E014301AB1076882
:100CF0002F43076002E00768AF430760F0BD0000C4
:100D00002DE9F04786B005460E460024A24600BFF6
:100D1000A1460027B08900B100BF2F462C8A4CF6AF
:100D2000FF700440F08804432C82AC894EF6F31027
:100D30000440B08831890843718908430443AC8179
:100D4000AC8A4FF6FF400440B0890443AC8201A84E
:100D5000FFF792FB1F48874202D1DDF810A001E0A7
:100D6000DDF80CA0A88900F4004040B10AEBCA00ED
:100D700000EB0A1031684900B0FBF1F807E00AEB1C
:100D8000CA0000EB0A1031688900B0FBF1F864205A
:100D9000B8FBF0F004012009642101FB1089A88947
:100DA00000F4004040B1322000EBC900B0FBF1F08C
:100DB00000F00700044308E0322000EB0910642132
:100DC000B0FBF1F000F00F0004432C8106B0BDE849
:100DD000F08700000038014001468888C0F3080011
:100DE000704700BFFEE7000008B54FF4A060FFF7B2
:100DF00017FB4FF4E130FFF795FE0C20664B002205
:100E00004FF400410090C803FFF7A0FB0320634BA1
:100E100000224FF4004100906148FFF797FBFFF775
:100E2000A9FCFFF7FDFD00214FF08040FFF7A1FD79
:100E300000214FF08040FFF79EFD00215848FFF74A
:100E400098FD00215648FFF796FDA3E05548007D28
:100E50000128FAD1534840785249097840EA0120E4
:100E600004B214B90120FFF7C3FE002C07DB0120F8
:100E70004D49086000204D49C1F8900106E000206E
:100E80004949086001204949C1F89001201E01DB51
:100E9000014600E04142464A1180104601884FF069
:100EA0008040FFF766FD3F48C0783E49897840EAB8
:100EB000012004B2002C07DB01203E49086000201D
:100EC0003D49C1F8940106E000203A49086001203C
:100ED0003949C1F89401201E01DB014600E041427E
:100EE000364A1180104601884FF08040FFF743FDDD
:100EF0002C4840792B49097940EA012004B2002CA2
:100F000007DB01202E49086000202E49C1F8B401FA
:100F100006E000202A49086001202A49C1F8B401EE
:100F2000201E01DB014600E04142274A11801046A5
:100F300001881B48FFF71DFD1A48C07919498979B6
:100F400040EA012004B2002C08DB01201C491839BA
:100F5000086000201B49C1F8AC0107E000201849D7
:100F60001839086001201749C1F8AC01201E01DBC7
:100F7000014600E04142154A1180104601880848A8
:100F8000FFF7F9FC08210748FFF724FE0020054978
:100F9000087500BF5AE7000000080140000C01403E
:100FA000000400402C000020900121420000224259
:100FB000020000208801224200002142040000209B
:100FC000BC8123420080234206000020080000204C
:100FD000F00F000800000020200000006C01000855
:100FE0001010000820000020B00600008801000852
:100FF00000000000000000000000000000000000F1
:10100000010203040102030406070809020406089A
:04000005080001CD21
:00000001FF
